:020000040000FA
:020000000D28C9
:040002000034003492
:080008008B138B1C23288B10C5
:10001000831620308106831239283D3081008316F3
:100020008113811281110115811401148B178B1614
:100030000B16013086008312A001A101A201030169
:100040003A2086002228A10A2108143A031D3628E6
:1000500022182F28A00A201E3228A209A003A003DC
:100060000319A209A10120083A2086000B113D3096
:100070008100090082077E340C34B6349E34CC34BF
:10008000DA34FA340E34FE34DE34EE34F8347234BA
:06009000BC34F234E2343E
:02400E00103F61
:00000001FF
